{
  "_format": "hh-sol-artifact-1",
  "contractName": "KryxiviaStaking",
  "sourceName": "contracts/KryxiviaStaking.sol",
  "abi": [
    {
      "inputs": [
        {
          "internalType": "address",
          "name": "kryxiviaCoin",
          "type": "address"
        },
        {
          "internalType": "address",
          "name": "kryxiviaManager",
          "type": "address"
        }
      ],
      "stateMutability": "nonpayable",
      "type": "constructor"
    },
    {
      "inputs": [],
      "name": "_amountOfTotalBlocks",
      "outputs": [
        {
          "internalType": "uint256",
          "name": "",
          "type": "uint256"
        }
      ],
      "stateMutability": "view",
      "type": "function"
    },
    {
      "inputs": [
        {
          "internalType": "uint256",
          "name": "",
          "type": "uint256"
        }
      ],
      "name": "_lockersAddress",
      "outputs": [
        {
          "internalType": "address",
          "name": "",
          "type": "address"
        }
      ],
      "stateMutability": "view",
      "type": "function"
    },
    {
      "inputs": [],
      "name": "_lockersIndex",
      "outputs": [
        {
          "internalType": "uint256",
          "name": "",
          "type": "uint256"
        }
      ],
      "stateMutability": "view",
      "type": "function"
    },
    {
      "inputs": [],
      "name": "_minimumRequiredLock",
      "outputs": [
        {
          "internalType": "uint256",
          "name": "",
          "type": "uint256"
        }
      ],
      "stateMutability": "view",
      "type": "function"
    },
    {
      "inputs": [
        {
          "internalType": "address",
          "name": "",
          "type": "address"
        }
      ],
      "name": "_stakers",
      "outputs": [
        {
          "internalType": "uint256",
          "name": "amount",
          "type": "uint256"
        },
        {
          "internalType": "uint256",
          "name": "start_block",
          "type": "uint256"
        },
        {
          "internalType": "uint256",
          "name": "end_block",
          "type": "uint256"
        },
        {
          "internalType": "bool",
          "name": "validated",
          "type": "bool"
        }
      ],
      "stateMutability": "view",
      "type": "function"
    },
    {
      "inputs": [],
      "name": "_stakersCount",
      "outputs": [
        {
          "internalType": "uint256",
          "name": "",
          "type": "uint256"
        }
      ],
      "stateMutability": "view",
      "type": "function"
    },
    {
      "inputs": [],
      "name": "_stakingState",
      "outputs": [
        {
          "internalType": "bool",
          "name": "",
          "type": "bool"
        }
      ],
      "stateMutability": "view",
      "type": "function"
    },
    {
      "inputs": [],
      "name": "_totalLocked",
      "outputs": [
        {
          "internalType": "uint256",
          "name": "",
          "type": "uint256"
        }
      ],
      "stateMutability": "view",
      "type": "function"
    },
    {
      "inputs": [
        {
          "internalType": "address",
          "name": "addr",
          "type": "address"
        }
      ],
      "name": "getAddrEndBlock",
      "outputs": [
        {
          "internalType": "uint256",
          "name": "",
          "type": "uint256"
        }
      ],
      "stateMutability": "view",
      "type": "function"
    },
    {
      "inputs": [
        {
          "internalType": "address",
          "name": "addr",
          "type": "address"
        }
      ],
      "name": "getAddrLockAmount",
      "outputs": [
        {
          "internalType": "uint256",
          "name": "",
          "type": "uint256"
        }
      ],
      "stateMutability": "view",
      "type": "function"
    },
    {
      "inputs": [
        {
          "internalType": "address",
          "name": "addr",
          "type": "address"
        }
      ],
      "name": "getAddrStartBlock",
      "outputs": [
        {
          "internalType": "uint256",
          "name": "",
          "type": "uint256"
        }
      ],
      "stateMutability": "view",
      "type": "function"
    },
    {
      "inputs": [
        {
          "internalType": "uint256",
          "name": "index",
          "type": "uint256"
        }
      ],
      "name": "getLockerIndexAddress",
      "outputs": [
        {
          "internalType": "address",
          "name": "",
          "type": "address"
        }
      ],
      "stateMutability": "view",
      "type": "function"
    },
    {
      "inputs": [],
      "name": "getLockersIndex",
      "outputs": [
        {
          "internalType": "uint256",
          "name": "",
          "type": "uint256"
        }
      ],
      "stateMutability": "view",
      "type": "function"
    },
    {
      "inputs": [],
      "name": "getMinimumRequiredLock",
      "outputs": [
        {
          "internalType": "uint256",
          "name": "",
          "type": "uint256"
        }
      ],
      "stateMutability": "view",
      "type": "function"
    },
    {
      "inputs": [],
      "name": "getStakingState",
      "outputs": [
        {
          "internalType": "bool",
          "name": "",
          "type": "bool"
        }
      ],
      "stateMutability": "view",
      "type": "function"
    },
    {
      "inputs": [],
      "name": "getTotalBlocks",
      "outputs": [
        {
          "internalType": "uint256",
          "name": "",
          "type": "uint256"
        }
      ],
      "stateMutability": "view",
      "type": "function"
    },
    {
      "inputs": [],
      "name": "getTotalStakers",
      "outputs": [
        {
          "internalType": "uint256",
          "name": "",
          "type": "uint256"
        }
      ],
      "stateMutability": "view",
      "type": "function"
    },
    {
      "inputs": [
        {
          "internalType": "address",
          "name": "addr",
          "type": "address"
        }
      ],
      "name": "getValidatedState",
      "outputs": [
        {
          "internalType": "bool",
          "name": "",
          "type": "bool"
        }
      ],
      "stateMutability": "view",
      "type": "function"
    },
    {
      "inputs": [
        {
          "internalType": "uint256",
          "name": "amountKxa",
          "type": "uint256"
        }
      ],
      "name": "setMinimumRequiredLock",
      "outputs": [],
      "stateMutability": "nonpayable",
      "type": "function"
    },
    {
      "inputs": [
        {
          "internalType": "bool",
          "name": "state",
          "type": "bool"
        }
      ],
      "name": "setStakingState",
      "outputs": [],
      "stateMutability": "nonpayable",
      "type": "function"
    },
    {
      "inputs": [
        {
          "internalType": "uint256",
          "name": "amountOfBlocks",
          "type": "uint256"
        }
      ],
      "name": "setTotalBlocks",
      "outputs": [],
      "stateMutability": "nonpayable",
      "type": "function"
    },
    {
      "inputs": [
        {
          "internalType": "address",
          "name": "addr",
          "type": "address"
        },
        {
          "internalType": "bool",
          "name": "state",
          "type": "bool"
        }
      ],
      "name": "setValidatedState",
      "outputs": [],
      "stateMutability": "nonpayable",
      "type": "function"
    },
    {
      "inputs": [
        {
          "internalType": "uint256",
          "name": "amountToLock",
          "type": "uint256"
        }
      ],
      "name": "stakeKXA",
      "outputs": [],
      "stateMutability": "nonpayable",
      "type": "function"
    },
    {
      "inputs": [],
      "name": "unStakeKXA",
      "outputs": [],
      "stateMutability": "nonpayable",
      "type": "function"
    }
  ],
  "bytecode": "0x6080604052670de0b6b3a76400006001556001600260146101000a81548160ff0219169083151502179055503480156200003857600080fd5b506040516200243b3803806200243b83398181016040528101906200005e9190620001b6565b816000806101000a81548173ffffffffffffffffffffffffffffffffffffffff021916908373ffffffffffffffffffffffffffffffffffffffff16021790555080600260006101000a81548173ffffffffffffffffffffffffffffffffffffffff021916908373ffffffffffffffffffffffffffffffffffffffff160217905550620cb38f6003819055506000613a9890506200010c600154826200011b60201b6200117f1790919060201c565b600481905550505050620003ef565b60008083141562000130576000905062000199565b6000828462000140919062000289565b905082848262000151919062000251565b1462000194576040517f08c379a00000000000000000000000000000000000000000000000000000000081526004016200018b906200021e565b60405180910390fd5b809150505b92915050565b600081519050620001b081620003d5565b92915050565b60008060408385031215620001ca57600080fd5b6000620001da858286016200019f565b9250506020620001ed858286016200019f565b9150509250929050565b60006200020660218362000240565b9150620002138262000386565b604082019050919050565b600060208201905081810360008301526200023981620001f7565b9050919050565b600082825260208201905092915050565b60006200025e826200031e565b91506200026b836200031e565b9250826200027e576200027d62000357565b5b828204905092915050565b600062000296826200031e565b9150620002a3836200031e565b9250817fffffffffffffffffffffffffffffffffffffffffffffffffffffffffffffffff0483118215151615620002df57620002de62000328565b5b828202905092915050565b6000620002f782620002fe565b9050919050565b600073ffffffffffffffffffffffffffffffffffffffff82169050919050565b6000819050919050565b7f4e487b7100000000000000000000000000000000000000000000000000000000600052601160045260246000fd5b7f4e487b7100000000000000000000000000000000000000000000000000000000600052601260045260246000fd5b7f536166654d6174683a206d756c7469706c69636174696f6e206f766572666c6f60008201527f7700000000000000000000000000000000000000000000000000000000000000602082015250565b620003e081620002ea565b8114620003ec57600080fd5b50565b61203c80620003ff6000396000f3fe608060405234801561001057600080fd5b50600436106101585760003560e01c80636d35fb29116100c3578063c8840b051161007c578063c8840b05146103cc578063dc9c8650146103ea578063e190c9061461041a578063f70b52ed14610424578063fa726c1e14610442578063fa788d8d1461046057610158565b80636d35fb291461030757806375e032f4146103255780637e5c92e21461035857806392800358146103745780639785b3c614610390578063b51a6898146103ae57610158565b80632f637360116101155780632f6373601461023157806331ed0db41461026157806338f059b91461027f5780633b51e5cf1461029d57806346316181146102b957806346dfb5f1146102e957610158565b8063050488081461015d57806311d4cf351461018d578063167eda0f146101a957806319a0d57b146101c55780631bc8dc87146101f55780632f191c4d14610213575b600080fd5b6101776004803603810190610172919061136f565b610490565b6040516101849190611940565b60405180910390f35b6101a760048036038101906101a29190611426565b6104dc565b005b6101c360048036038101906101be9190611426565b610576565b005b6101df60048036038101906101da9190611426565b6109a9565b6040516101ec91906116c8565b60405180910390f35b6101fd6109e8565b60405161020a9190611743565b60405180910390f35b61021b6109fb565b6040516102289190611940565b60405180910390f35b61024b6004803603810190610246919061136f565b610a05565b6040516102589190611743565b60405180910390f35b610269610a5e565b6040516102769190611940565b60405180910390f35b610287610a68565b6040516102949190611743565b60405180910390f35b6102b760048036038101906102b291906113d4565b610a7f565b005b6102d360048036038101906102ce919061136f565b610b2c565b6040516102e09190611940565b60405180910390f35b6102f1610b78565b6040516102fe9190611940565b60405180910390f35b61030f610b82565b60405161031c9190611940565b60405180910390f35b61033f600480360381019061033a919061136f565b610b88565b60405161034f949392919061195b565b60405180910390f35b610372600480360381019061036d9190611398565b610bc5565b005b61038e60048036038101906103899190611426565b610cb3565b005b610398610d4d565b6040516103a59190611940565b60405180910390f35b6103b6610d57565b6040516103c39190611940565b60405180910390f35b6103d4610d5d565b6040516103e19190611940565b60405180910390f35b61040460048036038101906103ff919061136f565b610d63565b6040516104119190611940565b60405180910390f35b610422610daf565b005b61042c611105565b6040516104399190611940565b60405180910390f35b61044a61110b565b6040516104579190611940565b60405180910390f35b61047a60048036038101906104759190611426565b611111565b60405161048791906116c8565b60405180910390f35b6000600960008373ffffffffffffffffffffffffffffffffffffffff1673ffffffffffffffffffffffffffffffffffffffff168152602001908152602001600020600101549050919050565b600260009054906101000a900473ffffffffffffffffffffffffffffffffffffffff1673ffffffffffffffffffffffffffffffffffffffff163373ffffffffffffffffffffffffffffffffffffffff161461056c576040517f08c379a0000000000000000000000000000000000000000000000000000000008152600401610563906117e0565b60405180910390fd5b8060038190555050565b60008060009054906101000a900473ffffffffffffffffffffffffffffffffffffffff1690506000600960003373ffffffffffffffffffffffffffffffffffffffff1673ffffffffffffffffffffffffffffffffffffffff1681526020019081526020016000206000015414610621576040517f08c379a0000000000000000000000000000000000000000000000000000000008152600401610618906117c0565b60405180910390fd5b600454821015610666576040517f08c379a000000000000000000000000000000000000000000000000000000000815260040161065d90611860565b60405180910390fd5b818173ffffffffffffffffffffffffffffffffffffffff166370a08231336040518263ffffffff1660e01b81526004016106a091906116c8565b60206040518083038186803b1580156106b857600080fd5b505afa1580156106cc573d6000803e3d6000fd5b505050506040513d601f19601f820116820180604052508101906106f0919061144f565b1015610731576040517f08c379a000000000000000000000000000000000000000000000000000000000815260040161072890611820565b60405180910390fd5b600115158173ffffffffffffffffffffffffffffffffffffffff166323b872dd3330866040518463ffffffff1660e01b8152600401610772939291906116e3565b602060405180830381600087803b15801561078c57600080fd5b505af11580156107a0573d6000803e3d6000fd5b505050506040513d601f19601f820116820180604052508101906107c491906113fd565b151514610806576040517f08c379a00000000000000000000000000000000000000000000000000000000081526004016107fd906117a0565b60405180910390fd5b43600960003373ffffffffffffffffffffffffffffffffffffffff1673ffffffffffffffffffffffffffffffffffffffff16815260200190815260200160002060010181905550610862600354436111fa90919063ffffffff16565b600960003373ffffffffffffffffffffffffffffffffffffffff1673ffffffffffffffffffffffffffffffffffffffff1681526020019081526020016000206002018190555081600960003373ffffffffffffffffffffffffffffffffffffffff1673ffffffffffffffffffffffffffffffffffffffff16815260200190815260200160002060000181905550610904826005546111fa90919063ffffffff16565b6005819055506008339080600181540180825580915050600190039060005260206000200160009091909190916101000a81548173ffffffffffffffffffffffffffffffffffffffff021916908373ffffffffffffffffffffffffffffffffffffffff16021790555061098360016006546111fa90919063ffffffff16565b60068190555061099f60016007546111fa90919063ffffffff16565b6007819055505050565b600881815481106109b957600080fd5b906000526020600020016000915054906101000a900473ffffffffffffffffffffffffffffffffffffffff1681565b600260149054906101000a900460ff1681565b6000600354905090565b6000600960008373ffffffffffffffffffffffffffffffffffffffff1673ffffffffffffffffffffffffffffffffffffffff16815260200190815260200160002060030160009054906101000a900460ff169050919050565b6000600754905090565b6000600260149054906101000a900460ff16905090565b600260009054906101000a900473ffffffffffffffffffffffffffffffffffffffff1673ffffffffffffffffffffffffffffffffffffffff163373ffffffffffffffffffffffffffffffffffffffff1614610b0f576040517f08c379a0000000000000000000000000000000000000000000000000000000008152600401610b0690611780565b60405180910390fd5b80600260146101000a81548160ff02191690831515021790555050565b6000600960008373ffffffffffffffffffffffffffffffffffffffff1673ffffffffffffffffffffffffffffffffffffffff168152602001908152602001600020600001549050919050565b6000600454905090565b60045481565b60096020528060005260406000206000915090508060000154908060010154908060020154908060030160009054906101000a900460ff16905084565b600260009054906101000a900473ffffffffffffffffffffffffffffffffffffffff1673ffffffffffffffffffffffffffffffffffffffff163373ffffffffffffffffffffffffffffffffffffffff1614610c55576040517f08c379a0000000000000000000000000000000000000000000000000000000008152600401610c4c90611900565b60405180910390fd5b80600960008473ffffffffffffffffffffffffffffffffffffffff1673ffffffffffffffffffffffffffffffffffffffff16815260200190815260200160002060030160006101000a81548160ff0219169083151502179055505050565b600260009054906101000a900473ffffffffffffffffffffffffffffffffffffffff1673ffffffffffffffffffffffffffffffffffffffff163373ffffffffffffffffffffffffffffffffffffffff1614610d43576040517f08c379a0000000000000000000000000000000000000000000000000000000008152600401610d3a906118a0565b60405180910390fd5b8060048190555050565b6000600654905090565b60035481565b60055481565b6000600960008373ffffffffffffffffffffffffffffffffffffffff1673ffffffffffffffffffffffffffffffffffffffff168152602001908152602001600020600201549050919050565b60008060009054906101000a900473ffffffffffffffffffffffffffffffffffffffff1690506000600960003373ffffffffffffffffffffffffffffffffffffffff1673ffffffffffffffffffffffffffffffffffffffff16815260200190815260200160002060000154905060008111610e5f576040517f08c379a0000000000000000000000000000000000000000000000000000000008152600401610e5690611840565b60405180910390fd5b600960003373ffffffffffffffffffffffffffffffffffffffff1673ffffffffffffffffffffffffffffffffffffffff16815260200190815260200160002060020154431015610ee4576040517f08c379a0000000000000000000000000000000000000000000000000000000008152600401610edb90611920565b60405180910390fd5b808273ffffffffffffffffffffffffffffffffffffffff166370a08231306040518263ffffffff1660e01b8152600401610f1e91906116c8565b60206040518083038186803b158015610f3657600080fd5b505afa158015610f4a573d6000803e3d6000fd5b505050506040513d601f19601f82011682018060405250810190610f6e919061144f565b1015610faf576040517f08c379a0000000000000000000000000000000000000000000000000000000008152600401610fa6906118c0565b60405180910390fd5b6000600960003373ffffffffffffffffffffffffffffffffffffffff1673ffffffffffffffffffffffffffffffffffffffff1681526020019081526020016000206000018190555061100c8160055461125890919063ffffffff16565b600581905550611028600160075461125890919063ffffffff16565b600781905550600115158273ffffffffffffffffffffffffffffffffffffffff1663a9059cbb33846040518363ffffffff1660e01b815260040161106d92919061171a565b602060405180830381600087803b15801561108757600080fd5b505af115801561109b573d6000803e3d6000fd5b505050506040513d601f19601f820116820180604052508101906110bf91906113fd565b151514611101576040517f08c379a00000000000000000000000000000000000000000000000000000000081526004016110f8906118e0565b60405180910390fd5b5050565b60065481565b60075481565b60006008828154811061114d577f4e487b7100000000000000000000000000000000000000000000000000000000600052603260045260246000fd5b9060005260206000200160009054906101000a900473ffffffffffffffffffffffffffffffffffffffff169050919050565b60008083141561119257600090506111f4565b600082846111a09190611a43565b90508284826111af9190611a12565b146111ef576040517f08c379a00000000000000000000000000000000000000000000000000000000081526004016111e690611880565b60405180910390fd5b809150505b92915050565b600080828461120991906119bc565b90508381101561124e576040517f08c379a000000000000000000000000000000000000000000000000000000000815260040161124590611800565b60405180910390fd5b8091505092915050565b600061129a83836040518060400160405280601e81526020017f536166654d6174683a207375627472616374696f6e206f766572666c6f7700008152506112a2565b905092915050565b60008383111582906112ea576040517f08c379a00000000000000000000000000000000000000000000000000000000081526004016112e1919061175e565b60405180910390fd5b50600083856112f99190611a9d565b9050809150509392505050565b60008135905061131581611fc1565b92915050565b60008135905061132a81611fd8565b92915050565b60008151905061133f81611fd8565b92915050565b60008135905061135481611fef565b92915050565b60008151905061136981611fef565b92915050565b60006020828403121561138157600080fd5b600061138f84828501611306565b91505092915050565b600080604083850312156113ab57600080fd5b60006113b985828601611306565b92505060206113ca8582860161131b565b9150509250929050565b6000602082840312156113e657600080fd5b60006113f48482850161131b565b91505092915050565b60006020828403121561140f57600080fd5b600061141d84828501611330565b91505092915050565b60006020828403121561143857600080fd5b600061144684828501611345565b91505092915050565b60006020828403121561146157600080fd5b600061146f8482850161135a565b91505092915050565b61148181611ad1565b82525050565b61149081611ae3565b82525050565b60006114a1826119a0565b6114ab81856119ab565b93506114bb818560208601611b19565b6114c481611baa565b840191505092915050565b60006114dc6032836119ab565b91506114e782611bbb565b604082019050919050565b60006114ff6022836119ab565b915061150a82611c0a565b604082019050919050565b6000611522603d836119ab565b915061152d82611c59565b604082019050919050565b6000611545604d836119ab565b915061155082611ca8565b606082019050919050565b6000611568601b836119ab565b915061157382611d1d565b602082019050919050565b600061158b6022836119ab565b915061159682611d46565b604082019050919050565b60006115ae6033836119ab565b91506115b982611d95565b604082019050919050565b60006115d16022836119ab565b91506115dc82611de4565b604082019050919050565b60006115f46021836119ab565b91506115ff82611e33565b604082019050919050565b6000611617603a836119ab565b915061162282611e82565b604082019050919050565b600061163a602c836119ab565b915061164582611ed1565b604082019050919050565b600061165d601e836119ab565b915061166882611f20565b602082019050919050565b60006116806035836119ab565b915061168b82611f49565b604082019050919050565b60006116a3601d836119ab565b91506116ae82611f98565b602082019050919050565b6116c281611b0f565b82525050565b60006020820190506116dd6000830184611478565b92915050565b60006060820190506116f86000830186611478565b6117056020830185611478565b61171260408301846116b9565b949350505050565b600060408201905061172f6000830185611478565b61173c60208301846116b9565b9392505050565b60006020820190506117586000830184611487565b92915050565b600060208201905081810360008301526117788184611496565b905092915050565b60006020820190508181036000830152611799816114cf565b9050919050565b600060208201905081810360008301526117b9816114f2565b9050919050565b600060208201905081810360008301526117d981611515565b9050919050565b600060208201905081810360008301526117f981611538565b9050919050565b600060208201905081810360008301526118198161155b565b9050919050565b600060208201905081810360008301526118398161157e565b9050919050565b60006020820190508181036000830152611859816115a1565b9050919050565b60006020820190508181036000830152611879816115c4565b9050919050565b60006020820190508181036000830152611899816115e7565b9050919050565b600060208201905081810360008301526118b98161160a565b9050919050565b600060208201905081810360008301526118d98161162d565b9050919050565b600060208201905081810360008301526118f981611650565b9050919050565b6000602082019050818103600083015261191981611673565b9050919050565b6000602082019050818103600083015261193981611696565b9050919050565b600060208201905061195560008301846116b9565b92915050565b600060808201905061197060008301876116b9565b61197d60208301866116b9565b61198a60408301856116b9565b6119976060830184611487565b95945050505050565b600081519050919050565b600082825260208201905092915050565b60006119c782611b0f565b91506119d283611b0f565b9250827fffffffffffffffffffffffffffffffffffffffffffffffffffffffffffffffff03821115611a0757611a06611b4c565b5b828201905092915050565b6000611a1d82611b0f565b9150611a2883611b0f565b925082611a3857611a37611b7b565b5b828204905092915050565b6000611a4e82611b0f565b9150611a5983611b0f565b9250817fffffffffffffffffffffffffffffffffffffffffffffffffffffffffffffffff0483118215151615611a9257611a91611b4c565b5b828202905092915050565b6000611aa882611b0f565b9150611ab383611b0f565b925082821015611ac657611ac5611b4c565b5b828203905092915050565b6000611adc82611aef565b9050919050565b60008115159050919050565b600073ffffffffffffffffffffffffffffffffffffffff82169050919050565b6000819050919050565b60005b83811015611b37578082015181840152602081019050611b1c565b83811115611b46576000848401525b50505050565b7f4e487b7100000000000000000000000000000000000000000000000000000000600052601160045260246000fd5b7f4e487b7100000000000000000000000000000000000000000000000000000000600052601260045260246000fd5b6000601f19601f8301169050919050565b7f4f6e6c7920746865204b72797869766961206d616e616765722063616e20757060008201527f64617465207374616b696e672073746174650000000000000000000000000000602082015250565b7f4572726f72207472616e7366657246726f6d206f6e2074686520636f6e74726160008201527f6374000000000000000000000000000000000000000000000000000000000000602082015250565b7f596f7520616c7265616479207374616b6564204b584120696e2074686520636f60008201527f6e74726163742c20706c6561736520756e7374616b6520666972737421000000602082015250565b7f4f6e6c7920746865204b72797869766961206d616e616765722063616e20757060008201527f6461746520746f74616c20616d6f756e74206f6620626c6f636b73206e65656460208201527f656420666f7220756e6c6f636b00000000000000000000000000000000000000604082015250565b7f536166654d6174683a206164646974696f6e206f766572666c6f770000000000600082015250565b7f496e73756666696369656e742066756e64732066726f6d207468652073656e6460008201527f6572000000000000000000000000000000000000000000000000000000000000602082015250565b7f596f7520646964206e6f74206c6f636b656420616e79204b584120696e20746860008201527f65207374616b696e6720636f6e74726163742100000000000000000000000000602082015250565b7f4e6f7420656e6f756768204b584120746f2066697420726571756972656d656e60008201527f7473000000000000000000000000000000000000000000000000000000000000602082015250565b7f536166654d6174683a206d756c7469706c69636174696f6e206f766572666c6f60008201527f7700000000000000000000000000000000000000000000000000000000000000602082015250565b7f4f6e6c7920746865204b72797869766961206d616e616765722063616e20757060008201527f64617465206d696e696d756d206c6f636b207265717569726564000000000000602082015250565b7f4e6f7420656e6f756768204b58412066756e647320696e20746865207374616b60008201527f696e6720636f6e74726163740000000000000000000000000000000000000000602082015250565b7f4572726f72207472616e73666572206f6e2074686520636f6e74726163740000600082015250565b7f4f6e6c7920746865204b72797869766961206d616e616765722063616e20757060008201527f646174652076616c69646174696f6e2073746174650000000000000000000000602082015250565b7f596f752063616e7420756e6c6f636b20796f7572204b58412079657421000000600082015250565b611fca81611ad1565b8114611fd557600080fd5b50565b611fe181611ae3565b8114611fec57600080fd5b50565b611ff881611b0f565b811461200357600080fd5b5056fea264697066735822122062ece421c6c8cc4d121671b2e5adb5abe183a1833aeb78c68017ba7e8eeddea264736f6c63430008040033",
  "linkReferences": {},
  "deployedLinkReferences": {}
}