{
    "_format": "hh-sol-artifact-1",
    "contractName": "KryxiviaStaking",
    "sourceName": "contracts/KryxiviaStaking.sol",
    "abi": [
        {
            "inputs": [
                {
                    "internalType": "address",
                    "name": "kryxiviaCoin",
                    "type": "address"
                },
                {
                    "internalType": "address",
                    "name": "kryxiviaManager",
                    "type": "address"
                }
            ],
            "stateMutability": "nonpayable",
            "type": "constructor"
        },
        {
            "inputs": [],
            "name": "_amountOfTotalBlocks",
            "outputs": [
                {
                    "internalType": "uint256",
                    "name": "",
                    "type": "uint256"
                }
            ],
            "stateMutability": "view",
            "type": "function"
        },
        {
            "inputs": [
                {
                    "internalType": "uint256",
                    "name": "",
                    "type": "uint256"
                }
            ],
            "name": "_lockersAddress",
            "outputs": [
                {
                    "internalType": "address",
                    "name": "",
                    "type": "address"
                }
            ],
            "stateMutability": "view",
            "type": "function"
        },
        {
            "inputs": [],
            "name": "_lockersIndex",
            "outputs": [
                {
                    "internalType": "uint256",
                    "name": "",
                    "type": "uint256"
                }
            ],
            "stateMutability": "view",
            "type": "function"
        },
        {
            "inputs": [],
            "name": "_minimumRequiredLock",
            "outputs": [
                {
                    "internalType": "uint256",
                    "name": "",
                    "type": "uint256"
                }
            ],
            "stateMutability": "view",
            "type": "function"
        },
        {
            "inputs": [
                {
                    "internalType": "address",
                    "name": "",
                    "type": "address"
                }
            ],
            "name": "_stakers",
            "outputs": [
                {
                    "internalType": "uint256",
                    "name": "amount",
                    "type": "uint256"
                },
                {
                    "internalType": "uint256",
                    "name": "start_block",
                    "type": "uint256"
                },
                {
                    "internalType": "uint256",
                    "name": "end_block",
                    "type": "uint256"
                },
                {
                    "internalType": "bool",
                    "name": "validated",
                    "type": "bool"
                }
            ],
            "stateMutability": "view",
            "type": "function"
        },
        {
            "inputs": [],
            "name": "_stakingState",
            "outputs": [
                {
                    "internalType": "bool",
                    "name": "",
                    "type": "bool"
                }
            ],
            "stateMutability": "view",
            "type": "function"
        },
        {
            "inputs": [],
            "name": "_totalLocked",
            "outputs": [
                {
                    "internalType": "uint256",
                    "name": "",
                    "type": "uint256"
                }
            ],
            "stateMutability": "view",
            "type": "function"
        },
        {
            "inputs": [
                {
                    "internalType": "address",
                    "name": "addr",
                    "type": "address"
                }
            ],
            "name": "getAddrEndBlock",
            "outputs": [
                {
                    "internalType": "uint256",
                    "name": "",
                    "type": "uint256"
                }
            ],
            "stateMutability": "view",
            "type": "function"
        },
        {
            "inputs": [
                {
                    "internalType": "address",
                    "name": "addr",
                    "type": "address"
                }
            ],
            "name": "getAddrLockAmount",
            "outputs": [
                {
                    "internalType": "uint256",
                    "name": "",
                    "type": "uint256"
                }
            ],
            "stateMutability": "view",
            "type": "function"
        },
        {
            "inputs": [
                {
                    "internalType": "address",
                    "name": "addr",
                    "type": "address"
                }
            ],
            "name": "getAddrStartBlock",
            "outputs": [
                {
                    "internalType": "uint256",
                    "name": "",
                    "type": "uint256"
                }
            ],
            "stateMutability": "view",
            "type": "function"
        },
        {
            "inputs": [
                {
                    "internalType": "uint256",
                    "name": "index",
                    "type": "uint256"
                }
            ],
            "name": "getLockerIndexAddress",
            "outputs": [
                {
                    "internalType": "address",
                    "name": "",
                    "type": "address"
                }
            ],
            "stateMutability": "view",
            "type": "function"
        },
        {
            "inputs": [],
            "name": "getMinimumRequiredLock",
            "outputs": [
                {
                    "internalType": "uint256",
                    "name": "",
                    "type": "uint256"
                }
            ],
            "stateMutability": "view",
            "type": "function"
        },
        {
            "inputs": [],
            "name": "getStakingState",
            "outputs": [
                {
                    "internalType": "bool",
                    "name": "",
                    "type": "bool"
                }
            ],
            "stateMutability": "view",
            "type": "function"
        },
        {
            "inputs": [],
            "name": "getTotalBlocks",
            "outputs": [
                {
                    "internalType": "uint256",
                    "name": "",
                    "type": "uint256"
                }
            ],
            "stateMutability": "view",
            "type": "function"
        },
        {
            "inputs": [
                {
                    "internalType": "address",
                    "name": "addr",
                    "type": "address"
                }
            ],
            "name": "getValidatedState",
            "outputs": [
                {
                    "internalType": "bool",
                    "name": "",
                    "type": "bool"
                }
            ],
            "stateMutability": "view",
            "type": "function"
        },
        {
            "inputs": [
                {
                    "internalType": "uint256",
                    "name": "amountKxa",
                    "type": "uint256"
                }
            ],
            "name": "setMinimumRequiredLock",
            "outputs": [],
            "stateMutability": "nonpayable",
            "type": "function"
        },
        {
            "inputs": [
                {
                    "internalType": "bool",
                    "name": "state",
                    "type": "bool"
                }
            ],
            "name": "setStakingState",
            "outputs": [],
            "stateMutability": "nonpayable",
            "type": "function"
        },
        {
            "inputs": [
                {
                    "internalType": "uint256",
                    "name": "amountOfBlocks",
                    "type": "uint256"
                }
            ],
            "name": "setTotalBlocks",
            "outputs": [],
            "stateMutability": "nonpayable",
            "type": "function"
        },
        {
            "inputs": [
                {
                    "internalType": "address",
                    "name": "addr",
                    "type": "address"
                },
                {
                    "internalType": "bool",
                    "name": "state",
                    "type": "bool"
                }
            ],
            "name": "setValidatedState",
            "outputs": [],
            "stateMutability": "nonpayable",
            "type": "function"
        },
        {
            "inputs": [
                {
                    "internalType": "uint256",
                    "name": "amountToLock",
                    "type": "uint256"
                }
            ],
            "name": "stakeKXA",
            "outputs": [],
            "stateMutability": "nonpayable",
            "type": "function"
        },
        {
            "inputs": [],
            "name": "unStakeKXA",
            "outputs": [],
            "stateMutability": "nonpayable",
            "type": "function"
        }
    ],
    "bytecode": "0x6080604052670de0b6b3a76400006001556001600260146101000a81548160ff0219169083151502179055503480156200003857600080fd5b50604051620022483803806200224883398181016040528101906200005e9190620001b6565b816000806101000a81548173ffffffffffffffffffffffffffffffffffffffff021916908373ffffffffffffffffffffffffffffffffffffffff16021790555080600260006101000a81548173ffffffffffffffffffffffffffffffffffffffff021916908373ffffffffffffffffffffffffffffffffffffffff160217905550620cb38f6003819055506000613a9890506200010c600154826200011b60201b6200101e1790919060201c565b600481905550505050620003ef565b60008083141562000130576000905062000199565b6000828462000140919062000289565b905082848262000151919062000251565b1462000194576040517f08c379a00000000000000000000000000000000000000000000000000000000081526004016200018b906200021e565b60405180910390fd5b809150505b92915050565b600081519050620001b081620003d5565b92915050565b60008060408385031215620001ca57600080fd5b6000620001da858286016200019f565b9250506020620001ed858286016200019f565b9150509250929050565b60006200020660218362000240565b9150620002138262000386565b604082019050919050565b600060208201905081810360008301526200023981620001f7565b9050919050565b600082825260208201905092915050565b60006200025e826200031e565b91506200026b836200031e565b9250826200027e576200027d62000357565b5b828204905092915050565b600062000296826200031e565b9150620002a3836200031e565b9250817fffffffffffffffffffffffffffffffffffffffffffffffffffffffffffffffff0483118215151615620002df57620002de62000328565b5b828202905092915050565b6000620002f782620002fe565b9050919050565b600073ffffffffffffffffffffffffffffffffffffffff82169050919050565b6000819050919050565b7f4e487b7100000000000000000000000000000000000000000000000000000000600052601160045260246000fd5b7f4e487b7100000000000000000000000000000000000000000000000000000000600052601260045260246000fd5b7f536166654d6174683a206d756c7469706c69636174696f6e206f766572666c6f60008201527f7700000000000000000000000000000000000000000000000000000000000000602082015250565b620003e081620002ea565b8114620003ec57600080fd5b50565b611e4980620003ff6000396000f3fe608060405234801561001057600080fd5b50600436106101375760003560e01c806346dfb5f1116100b8578063b51a68981161007c578063b51a689814610351578063c8840b051461036f578063dc9c86501461038d578063e190c906146103bd578063f70b52ed146103c7578063fa788d8d146103e557610137565b806346dfb5f1146102aa5780636d35fb29146102c857806375e032f4146102e65780637e5c92e214610319578063928003581461033557610137565b80632f191c4d116100ff5780632f191c4d146101f25780632f6373601461021057806338f059b9146102405780633b51e5cf1461025e578063463161811461027a57610137565b8063050488081461013c57806311d4cf351461016c578063167eda0f1461018857806319a0d57b146101a45780631bc8dc87146101d4575b600080fd5b6101566004803603810190610151919061120e565b610415565b604051610163919061179c565b60405180910390f35b610186600480360381019061018191906112c5565b610461565b005b6101a2600480360381019061019d91906112c5565b6104fb565b005b6101be60048036038101906101b991906112c5565b610883565b6040516101cb9190611544565b60405180910390f35b6101dc6108c2565b6040516101e991906115bf565b60405180910390f35b6101fa6108d5565b604051610207919061179c565b60405180910390f35b61022a6004803603810190610225919061120e565b6108df565b60405161023791906115bf565b60405180910390f35b610248610938565b60405161025591906115bf565b60405180910390f35b61027860048036038101906102739190611273565b61094f565b005b610294600480360381019061028f919061120e565b6109fc565b6040516102a1919061179c565b60405180910390f35b6102b2610a48565b6040516102bf919061179c565b60405180910390f35b6102d0610a52565b6040516102dd919061179c565b60405180910390f35b61030060048036038101906102fb919061120e565b610a58565b60405161031094939291906117b7565b60405180910390f35b610333600480360381019061032e9190611237565b610a95565b005b61034f600480360381019061034a91906112c5565b610b83565b005b610359610c1d565b604051610366919061179c565b60405180910390f35b610377610c23565b604051610384919061179c565b60405180910390f35b6103a760048036038101906103a2919061120e565b610c29565b6040516103b4919061179c565b60405180910390f35b6103c5610c75565b005b6103cf610faa565b6040516103dc919061179c565b60405180910390f35b6103ff60048036038101906103fa91906112c5565b610fb0565b60405161040c9190611544565b60405180910390f35b6000600860008373ffffffffffffffffffffffffffffffffffffffff1673ffffffffffffffffffffffffffffffffffffffff168152602001908152602001600020600101549050919050565b600260009054906101000a900473ffffffffffffffffffffffffffffffffffffffff1673ffffffffffffffffffffffffffffffffffffffff163373ffffffffffffffffffffffffffffffffffffffff16146104f1576040517f08c379a00000000000000000000000000000000000000000000000000000000081526004016104e89061163c565b60405180910390fd5b8060038190555050565b60008060009054906101000a900473ffffffffffffffffffffffffffffffffffffffff169050600454821015610566576040517f08c379a000000000000000000000000000000000000000000000000000000000815260040161055d906116bc565b60405180910390fd5b818173ffffffffffffffffffffffffffffffffffffffff166370a08231336040518263ffffffff1660e01b81526004016105a09190611544565b60206040518083038186803b1580156105b857600080fd5b505afa1580156105cc573d6000803e3d6000fd5b505050506040513d601f19601f820116820180604052508101906105f091906112ee565b1015610631576040517f08c379a00000000000000000000000000000000000000000000000000000000081526004016106289061167c565b60405180910390fd5b600115158173ffffffffffffffffffffffffffffffffffffffff166323b872dd3330866040518463ffffffff1660e01b81526004016106729392919061155f565b602060405180830381600087803b15801561068c57600080fd5b505af11580156106a0573d6000803e3d6000fd5b505050506040513d601f19601f820116820180604052508101906106c4919061129c565b151514610706576040517f08c379a00000000000000000000000000000000000000000000000000000000081526004016106fd9061161c565b60405180910390fd5b43600860003373ffffffffffffffffffffffffffffffffffffffff1673ffffffffffffffffffffffffffffffffffffffff168152602001908152602001600020600101819055506107626003544361109990919063ffffffff16565b600860003373ffffffffffffffffffffffffffffffffffffffff1673ffffffffffffffffffffffffffffffffffffffff1681526020019081526020016000206002018190555081600860003373ffffffffffffffffffffffffffffffffffffffff1673ffffffffffffffffffffffffffffffffffffffff168152602001908152602001600020600001819055506108048260055461109990919063ffffffff16565b506007339080600181540180825580915050600190039060005260206000200160009091909190916101000a81548173ffffffffffffffffffffffffffffffffffffffff021916908373ffffffffffffffffffffffffffffffffffffffff16021790555061087e600160065461109990919063ffffffff16565b505050565b6007818154811061089357600080fd5b906000526020600020016000915054906101000a900473ffffffffffffffffffffffffffffffffffffffff1681565b600260149054906101000a900460ff1681565b6000600354905090565b6000600860008373ffffffffffffffffffffffffffffffffffffffff1673ffffffffffffffffffffffffffffffffffffffff16815260200190815260200160002060030160009054906101000a900460ff169050919050565b6000600260149054906101000a900460ff16905090565b600260009054906101000a900473ffffffffffffffffffffffffffffffffffffffff1673ffffffffffffffffffffffffffffffffffffffff163373ffffffffffffffffffffffffffffffffffffffff16146109df576040517f08c379a00000000000000000000000000000000000000000000000000000000081526004016109d6906115fc565b60405180910390fd5b80600260146101000a81548160ff02191690831515021790555050565b6000600860008373ffffffffffffffffffffffffffffffffffffffff1673ffffffffffffffffffffffffffffffffffffffff168152602001908152602001600020600001549050919050565b6000600454905090565b60045481565b60086020528060005260406000206000915090508060000154908060010154908060020154908060030160009054906101000a900460ff16905084565b600260009054906101000a900473ffffffffffffffffffffffffffffffffffffffff1673ffffffffffffffffffffffffffffffffffffffff163373ffffffffffffffffffffffffffffffffffffffff1614610b25576040517f08c379a0000000000000000000000000000000000000000000000000000000008152600401610b1c9061175c565b60405180910390fd5b80600860008473ffffffffffffffffffffffffffffffffffffffff1673ffffffffffffffffffffffffffffffffffffffff16815260200190815260200160002060030160006101000a81548160ff0219169083151502179055505050565b600260009054906101000a900473ffffffffffffffffffffffffffffffffffffffff1673ffffffffffffffffffffffffffffffffffffffff163373ffffffffffffffffffffffffffffffffffffffff1614610c13576040517f08c379a0000000000000000000000000000000000000000000000000000000008152600401610c0a906116fc565b60405180910390fd5b8060048190555050565b60035481565b60055481565b6000600860008373ffffffffffffffffffffffffffffffffffffffff1673ffffffffffffffffffffffffffffffffffffffff168152602001908152602001600020600201549050919050565b60008060009054906101000a900473ffffffffffffffffffffffffffffffffffffffff1690506000600860003373ffffffffffffffffffffffffffffffffffffffff1673ffffffffffffffffffffffffffffffffffffffff16815260200190815260200160002060000154905060008111610d25576040517f08c379a0000000000000000000000000000000000000000000000000000000008152600401610d1c9061169c565b60405180910390fd5b600860003373ffffffffffffffffffffffffffffffffffffffff1673ffffffffffffffffffffffffffffffffffffffff16815260200190815260200160002060020154431015610daa576040517f08c379a0000000000000000000000000000000000000000000000000000000008152600401610da19061177c565b60405180910390fd5b808273ffffffffffffffffffffffffffffffffffffffff166370a08231306040518263ffffffff1660e01b8152600401610de49190611544565b60206040518083038186803b158015610dfc57600080fd5b505afa158015610e10573d6000803e3d6000fd5b505050506040513d601f19601f82011682018060405250810190610e3491906112ee565b1015610e75576040517f08c379a0000000000000000000000000000000000000000000000000000000008152600401610e6c9061171c565b60405180910390fd5b6000600860003373ffffffffffffffffffffffffffffffffffffffff1673ffffffffffffffffffffffffffffffffffffffff16815260200190815260200160002060000181905550610ed2816005546110f790919063ffffffff16565b50600115158273ffffffffffffffffffffffffffffffffffffffff1663a9059cbb33846040518363ffffffff1660e01b8152600401610f12929190611596565b602060405180830381600087803b158015610f2c57600080fd5b505af1158015610f40573d6000803e3d6000fd5b505050506040513d601f19601f82011682018060405250810190610f64919061129c565b151514610fa6576040517f08c379a0000000000000000000000000000000000000000000000000000000008152600401610f9d9061173c565b60405180910390fd5b5050565b60065481565b600060078281548110610fec577f4e487b7100000000000000000000000000000000000000000000000000000000600052603260045260246000fd5b9060005260206000200160009054906101000a900473ffffffffffffffffffffffffffffffffffffffff169050919050565b6000808314156110315760009050611093565b6000828461103f919061189f565b905082848261104e919061186e565b1461108e576040517f08c379a0000000000000000000000000000000000000000000000000000000008152600401611085906116dc565b60405180910390fd5b809150505b92915050565b60008082846110a89190611818565b9050838110156110ed576040517f08c379a00000000000000000000000000000000000000000000000000000000081526004016110e49061165c565b60405180910390fd5b8091505092915050565b600061113983836040518060400160405280601e81526020017f536166654d6174683a207375627472616374696f6e206f766572666c6f770000815250611141565b905092915050565b6000838311158290611189576040517f08c379a000000000000000000000000000000000000000000000000000000000815260040161118091906115da565b60405180910390fd5b506000838561119891906118f9565b9050809150509392505050565b6000813590506111b481611dce565b92915050565b6000813590506111c981611de5565b92915050565b6000815190506111de81611de5565b92915050565b6000813590506111f381611dfc565b92915050565b60008151905061120881611dfc565b92915050565b60006020828403121561122057600080fd5b600061122e848285016111a5565b91505092915050565b6000806040838503121561124a57600080fd5b6000611258858286016111a5565b9250506020611269858286016111ba565b9150509250929050565b60006020828403121561128557600080fd5b6000611293848285016111ba565b91505092915050565b6000602082840312156112ae57600080fd5b60006112bc848285016111cf565b91505092915050565b6000602082840312156112d757600080fd5b60006112e5848285016111e4565b91505092915050565b60006020828403121561130057600080fd5b600061130e848285016111f9565b91505092915050565b6113208161192d565b82525050565b61132f8161193f565b82525050565b6000611340826117fc565b61134a8185611807565b935061135a818560208601611975565b61136381611a06565b840191505092915050565b600061137b603283611807565b915061138682611a17565b604082019050919050565b600061139e602283611807565b91506113a982611a66565b604082019050919050565b60006113c1604d83611807565b91506113cc82611ab5565b606082019050919050565b60006113e4601b83611807565b91506113ef82611b2a565b602082019050919050565b6000611407602283611807565b915061141282611b53565b604082019050919050565b600061142a603383611807565b915061143582611ba2565b604082019050919050565b600061144d602283611807565b915061145882611bf1565b604082019050919050565b6000611470602183611807565b915061147b82611c40565b604082019050919050565b6000611493603a83611807565b915061149e82611c8f565b604082019050919050565b60006114b6602c83611807565b91506114c182611cde565b604082019050919050565b60006114d9601e83611807565b91506114e482611d2d565b602082019050919050565b60006114fc603583611807565b915061150782611d56565b604082019050919050565b600061151f601d83611807565b915061152a82611da5565b602082019050919050565b61153e8161196b565b82525050565b60006020820190506115596000830184611317565b92915050565b60006060820190506115746000830186611317565b6115816020830185611317565b61158e6040830184611535565b949350505050565b60006040820190506115ab6000830185611317565b6115b86020830184611535565b9392505050565b60006020820190506115d46000830184611326565b92915050565b600060208201905081810360008301526115f48184611335565b905092915050565b600060208201905081810360008301526116158161136e565b9050919050565b6000602082019050818103600083015261163581611391565b9050919050565b60006020820190508181036000830152611655816113b4565b9050919050565b60006020820190508181036000830152611675816113d7565b9050919050565b60006020820190508181036000830152611695816113fa565b9050919050565b600060208201905081810360008301526116b58161141d565b9050919050565b600060208201905081810360008301526116d581611440565b9050919050565b600060208201905081810360008301526116f581611463565b9050919050565b6000602082019050818103600083015261171581611486565b9050919050565b60006020820190508181036000830152611735816114a9565b9050919050565b60006020820190508181036000830152611755816114cc565b9050919050565b60006020820190508181036000830152611775816114ef565b9050919050565b6000602082019050818103600083015261179581611512565b9050919050565b60006020820190506117b16000830184611535565b92915050565b60006080820190506117cc6000830187611535565b6117d96020830186611535565b6117e66040830185611535565b6117f36060830184611326565b95945050505050565b600081519050919050565b600082825260208201905092915050565b60006118238261196b565b915061182e8361196b565b9250827fffffffffffffffffffffffffffffffffffffffffffffffffffffffffffffffff03821115611863576118626119a8565b5b828201905092915050565b60006118798261196b565b91506118848361196b565b925082611894576118936119d7565b5b828204905092915050565b60006118aa8261196b565b91506118b58361196b565b9250817fffffffffffffffffffffffffffffffffffffffffffffffffffffffffffffffff04831182151516156118ee576118ed6119a8565b5b828202905092915050565b60006119048261196b565b915061190f8361196b565b925082821015611922576119216119a8565b5b828203905092915050565b60006119388261194b565b9050919050565b60008115159050919050565b600073ffffffffffffffffffffffffffffffffffffffff82169050919050565b6000819050919050565b60005b83811015611993578082015181840152602081019050611978565b838111156119a2576000848401525b50505050565b7f4e487b7100000000000000000000000000000000000000000000000000000000600052601160045260246000fd5b7f4e487b7100000000000000000000000000000000000000000000000000000000600052601260045260246000fd5b6000601f19601f8301169050919050565b7f4f6e6c7920746865204b72797869766961206d616e616765722063616e20757060008201527f64617465207374616b696e672073746174650000000000000000000000000000602082015250565b7f4572726f72207472616e7366657246726f6d206f6e2074686520636f6e74726160008201527f6374000000000000000000000000000000000000000000000000000000000000602082015250565b7f4f6e6c7920746865204b72797869766961206d616e616765722063616e20757060008201527f6461746520746f74616c20616d6f756e74206f6620626c6f636b73206e65656460208201527f656420666f7220756e6c6f636b00000000000000000000000000000000000000604082015250565b7f536166654d6174683a206164646974696f6e206f766572666c6f770000000000600082015250565b7f496e73756666696369656e742066756e64732066726f6d207468652073656e6460008201527f6572000000000000000000000000000000000000000000000000000000000000602082015250565b7f596f7520646964206e6f74206c6f636b656420616e79204b584120696e20746860008201527f65207374616b696e6720636f6e74726163742100000000000000000000000000602082015250565b7f4e6f7420656e6f756768204b584120746f2066697420726571756972656d656e60008201527f7473000000000000000000000000000000000000000000000000000000000000602082015250565b7f536166654d6174683a206d756c7469706c69636174696f6e206f766572666c6f60008201527f7700000000000000000000000000000000000000000000000000000000000000602082015250565b7f4f6e6c7920746865204b72797869766961206d616e616765722063616e20757060008201527f64617465206d696e696d756d206c6f636b207265717569726564000000000000602082015250565b7f4e6f7420656e6f756768204b58412066756e647320696e20746865207374616b60008201527f696e6720636f6e74726163740000000000000000000000000000000000000000602082015250565b7f4572726f72207472616e73666572206f6e2074686520636f6e74726163740000600082015250565b7f4f6e6c7920746865204b72797869766961206d616e616765722063616e20757060008201527f646174652076616c69646174696f6e2073746174650000000000000000000000602082015250565b7f596f752063616e7420756e6c6f636b20796f7572204b58412079657421000000600082015250565b611dd78161192d565b8114611de257600080fd5b50565b611dee8161193f565b8114611df957600080fd5b50565b611e058161196b565b8114611e1057600080fd5b5056fea2646970667358221220171c54db18e3f88df249a222731f7a6143c4c7be431fd30a91106f6dc7875d9c64736f6c63430008040033",
    "linkReferences": {},
    "deployedLinkReferences": {}
}