{
    "_format": "hh-sol-artifact-1",
    "contractName": "KryxiviaCoin",
    "sourceName": "contracts/KryxiviaCoin.sol",
    "abi": [
        {
            "inputs": [
                {
                    "internalType": "string",
                    "name": "name",
                    "type": "string"
                },
                {
                    "internalType": "string",
                    "name": "symbol",
                    "type": "string"
                }
            ],
            "stateMutability": "nonpayable",
            "type": "constructor"
        },
        {
            "anonymous": false,
            "inputs": [
                {
                    "indexed": true,
                    "internalType": "address",
                    "name": "owner",
                    "type": "address"
                },
                {
                    "indexed": true,
                    "internalType": "address",
                    "name": "spender",
                    "type": "address"
                },
                {
                    "indexed": false,
                    "internalType": "uint256",
                    "name": "value",
                    "type": "uint256"
                }
            ],
            "name": "Approval",
            "type": "event"
        },
        {
            "anonymous": false,
            "inputs": [
                {
                    "indexed": true,
                    "internalType": "bytes32",
                    "name": "role",
                    "type": "bytes32"
                },
                {
                    "indexed": true,
                    "internalType": "bytes32",
                    "name": "previousAdminRole",
                    "type": "bytes32"
                },
                {
                    "indexed": true,
                    "internalType": "bytes32",
                    "name": "newAdminRole",
                    "type": "bytes32"
                }
            ],
            "name": "RoleAdminChanged",
            "type": "event"
        },
        {
            "anonymous": false,
            "inputs": [
                {
                    "indexed": true,
                    "internalType": "bytes32",
                    "name": "role",
                    "type": "bytes32"
                },
                {
                    "indexed": true,
                    "internalType": "address",
                    "name": "account",
                    "type": "address"
                },
                {
                    "indexed": true,
                    "internalType": "address",
                    "name": "sender",
                    "type": "address"
                }
            ],
            "name": "RoleGranted",
            "type": "event"
        },
        {
            "anonymous": false,
            "inputs": [
                {
                    "indexed": true,
                    "internalType": "bytes32",
                    "name": "role",
                    "type": "bytes32"
                },
                {
                    "indexed": true,
                    "internalType": "address",
                    "name": "account",
                    "type": "address"
                },
                {
                    "indexed": true,
                    "internalType": "address",
                    "name": "sender",
                    "type": "address"
                }
            ],
            "name": "RoleRevoked",
            "type": "event"
        },
        {
            "anonymous": false,
            "inputs": [
                {
                    "indexed": true,
                    "internalType": "address",
                    "name": "from",
                    "type": "address"
                },
                {
                    "indexed": true,
                    "internalType": "address",
                    "name": "to",
                    "type": "address"
                },
                {
                    "indexed": false,
                    "internalType": "uint256",
                    "name": "value",
                    "type": "uint256"
                }
            ],
            "name": "Transfer",
            "type": "event"
        },
        {
            "inputs": [],
            "name": "DEFAULT_ADMIN_ROLE",
            "outputs": [
                {
                    "internalType": "bytes32",
                    "name": "",
                    "type": "bytes32"
                }
            ],
            "stateMutability": "view",
            "type": "function"
        },
        {
            "inputs": [],
            "name": "_decimals",
            "outputs": [
                {
                    "internalType": "uint8",
                    "name": "",
                    "type": "uint8"
                }
            ],
            "stateMutability": "view",
            "type": "function"
        },
        {
            "inputs": [
                {
                    "internalType": "address",
                    "name": "owner",
                    "type": "address"
                },
                {
                    "internalType": "address",
                    "name": "spender",
                    "type": "address"
                }
            ],
            "name": "allowance",
            "outputs": [
                {
                    "internalType": "uint256",
                    "name": "",
                    "type": "uint256"
                }
            ],
            "stateMutability": "view",
            "type": "function"
        },
        {
            "inputs": [
                {
                    "internalType": "address",
                    "name": "spender",
                    "type": "address"
                },
                {
                    "internalType": "uint256",
                    "name": "amount",
                    "type": "uint256"
                }
            ],
            "name": "approve",
            "outputs": [
                {
                    "internalType": "bool",
                    "name": "",
                    "type": "bool"
                }
            ],
            "stateMutability": "nonpayable",
            "type": "function"
        },
        {
            "inputs": [
                {
                    "internalType": "address",
                    "name": "account",
                    "type": "address"
                }
            ],
            "name": "balanceOf",
            "outputs": [
                {
                    "internalType": "uint256",
                    "name": "",
                    "type": "uint256"
                }
            ],
            "stateMutability": "view",
            "type": "function"
        },
        {
            "inputs": [
                {
                    "internalType": "uint256",
                    "name": "amount",
                    "type": "uint256"
                }
            ],
            "name": "burn",
            "outputs": [],
            "stateMutability": "nonpayable",
            "type": "function"
        },
        {
            "inputs": [
                {
                    "internalType": "address",
                    "name": "account",
                    "type": "address"
                },
                {
                    "internalType": "uint256",
                    "name": "amount",
                    "type": "uint256"
                }
            ],
            "name": "burnFrom",
            "outputs": [],
            "stateMutability": "nonpayable",
            "type": "function"
        },
        {
            "inputs": [
                {
                    "internalType": "uint256",
                    "name": "amount",
                    "type": "uint256"
                }
            ],
            "name": "burnKXA",
            "outputs": [],
            "stateMutability": "nonpayable",
            "type": "function"
        },
        {
            "inputs": [],
            "name": "decimals",
            "outputs": [
                {
                    "internalType": "uint8",
                    "name": "",
                    "type": "uint8"
                }
            ],
            "stateMutability": "view",
            "type": "function"
        },
        {
            "inputs": [
                {
                    "internalType": "address",
                    "name": "spender",
                    "type": "address"
                },
                {
                    "internalType": "uint256",
                    "name": "subtractedValue",
                    "type": "uint256"
                }
            ],
            "name": "decreaseAllowance",
            "outputs": [
                {
                    "internalType": "bool",
                    "name": "",
                    "type": "bool"
                }
            ],
            "stateMutability": "nonpayable",
            "type": "function"
        },
        {
            "inputs": [
                {
                    "internalType": "bytes32",
                    "name": "role",
                    "type": "bytes32"
                }
            ],
            "name": "getRoleAdmin",
            "outputs": [
                {
                    "internalType": "bytes32",
                    "name": "",
                    "type": "bytes32"
                }
            ],
            "stateMutability": "view",
            "type": "function"
        },
        {
            "inputs": [
                {
                    "internalType": "bytes32",
                    "name": "role",
                    "type": "bytes32"
                },
                {
                    "internalType": "address",
                    "name": "account",
                    "type": "address"
                }
            ],
            "name": "grantRole",
            "outputs": [],
            "stateMutability": "nonpayable",
            "type": "function"
        },
        {
            "inputs": [
                {
                    "internalType": "bytes32",
                    "name": "role",
                    "type": "bytes32"
                },
                {
                    "internalType": "address",
                    "name": "account",
                    "type": "address"
                }
            ],
            "name": "hasRole",
            "outputs": [
                {
                    "internalType": "bool",
                    "name": "",
                    "type": "bool"
                }
            ],
            "stateMutability": "view",
            "type": "function"
        },
        {
            "inputs": [
                {
                    "internalType": "address",
                    "name": "spender",
                    "type": "address"
                },
                {
                    "internalType": "uint256",
                    "name": "addedValue",
                    "type": "uint256"
                }
            ],
            "name": "increaseAllowance",
            "outputs": [
                {
                    "internalType": "bool",
                    "name": "",
                    "type": "bool"
                }
            ],
            "stateMutability": "nonpayable",
            "type": "function"
        },
        {
            "inputs": [],
            "name": "name",
            "outputs": [
                {
                    "internalType": "string",
                    "name": "",
                    "type": "string"
                }
            ],
            "stateMutability": "view",
            "type": "function"
        },
        {
            "inputs": [
                {
                    "internalType": "bytes32",
                    "name": "role",
                    "type": "bytes32"
                },
                {
                    "internalType": "address",
                    "name": "account",
                    "type": "address"
                }
            ],
            "name": "renounceRole",
            "outputs": [],
            "stateMutability": "nonpayable",
            "type": "function"
        },
        {
            "inputs": [
                {
                    "internalType": "bytes32",
                    "name": "role",
                    "type": "bytes32"
                },
                {
                    "internalType": "address",
                    "name": "account",
                    "type": "address"
                }
            ],
            "name": "revokeRole",
            "outputs": [],
            "stateMutability": "nonpayable",
            "type": "function"
        },
        {
            "inputs": [
                {
                    "internalType": "bool",
                    "name": "state",
                    "type": "bool"
                }
            ],
            "name": "setBurnState",
            "outputs": [],
            "stateMutability": "nonpayable",
            "type": "function"
        },
        {
            "inputs": [
                {
                    "internalType": "bytes4",
                    "name": "interfaceId",
                    "type": "bytes4"
                }
            ],
            "name": "supportsInterface",
            "outputs": [
                {
                    "internalType": "bool",
                    "name": "",
                    "type": "bool"
                }
            ],
            "stateMutability": "view",
            "type": "function"
        },
        {
            "inputs": [],
            "name": "symbol",
            "outputs": [
                {
                    "internalType": "string",
                    "name": "",
                    "type": "string"
                }
            ],
            "stateMutability": "view",
            "type": "function"
        },
        {
            "inputs": [],
            "name": "totalSupply",
            "outputs": [
                {
                    "internalType": "uint256",
                    "name": "",
                    "type": "uint256"
                }
            ],
            "stateMutability": "view",
            "type": "function"
        },
        {
            "inputs": [
                {
                    "internalType": "address",
                    "name": "recipient",
                    "type": "address"
                },
                {
                    "internalType": "uint256",
                    "name": "amount",
                    "type": "uint256"
                }
            ],
            "name": "transfer",
            "outputs": [
                {
                    "internalType": "bool",
                    "name": "",
                    "type": "bool"
                }
            ],
            "stateMutability": "nonpayable",
            "type": "function"
        },
        {
            "inputs": [
                {
                    "internalType": "address",
                    "name": "sender",
                    "type": "address"
                },
                {
                    "internalType": "address",
                    "name": "recipient",
                    "type": "address"
                },
                {
                    "internalType": "uint256",
                    "name": "amount",
                    "type": "uint256"
                }
            ],
            "name": "transferFrom",
            "outputs": [
                {
                    "internalType": "bool",
                    "name": "",
                    "type": "bool"
                }
            ],
            "stateMutability": "nonpayable",
            "type": "function"
        }
    ],
    "bytecode": "0x6080604052601260ff16600a620000179190620005e6565b630ee6b28062000028919062000723565b6006556000600760146101000a81548160ff0219169083151502179055503480156200005357600080fd5b50604051620030f8380380620030f88339818101604052810190620000799190620003d4565b8181816004908051906020019062000093929190620002b2565b508060059080519060200190620000ac929190620002b2565b50505033600760006101000a81548173ffffffffffffffffffffffffffffffffffffffff021916908373ffffffffffffffffffffffffffffffffffffffff16021790555062000126600760009054906101000a900473ffffffffffffffffffffffffffffffffffffffff166006546200012e60201b60201c565b505062000904565b600073ffffffffffffffffffffffffffffffffffffffff168273ffffffffffffffffffffffffffffffffffffffff161415620001a1576040517f08c379a000000000000000000000000000000000000000000000000000000000815260040162000198906200047f565b60405180910390fd5b620001b560008383620002a860201b60201c565b8060036000828254620001c991906200052e565b9250508190555080600160008473ffffffffffffffffffffffffffffffffffffffff1673ffffffffffffffffffffffffffffffffffffffff16815260200190815260200160002060008282546200022191906200052e565b925050819055508173ffffffffffffffffffffffffffffffffffffffff16600073ffffffffffffffffffffffffffffffffffffffff167fddf252ad1be2c89b69c2b068fc378daa952ba7f163c4a11628f55a4df523b3ef83604051620002889190620004a1565b60405180910390a3620002a460008383620002ad60201b60201c565b5050565b505050565b505050565b828054620002c090620007c4565b90600052602060002090601f016020900481019282620002e4576000855562000330565b82601f10620002ff57805160ff191683800117855562000330565b8280016001018555821562000330579182015b828111156200032f57825182559160200191906001019062000312565b5b5090506200033f919062000343565b5090565b5b808211156200035e57600081600090555060010162000344565b5090565b6000620003796200037384620004e7565b620004be565b9050828152602081018484840111156200039257600080fd5b6200039f8482856200078e565b509392505050565b600082601f830112620003b957600080fd5b8151620003cb84826020860162000362565b91505092915050565b60008060408385031215620003e857600080fd5b600083015167ffffffffffffffff8111156200040357600080fd5b6200041185828601620003a7565b925050602083015167ffffffffffffffff8111156200042f57600080fd5b6200043d85828601620003a7565b9150509250929050565b600062000456601f836200051d565b91506200046382620008db565b602082019050919050565b620004798162000784565b82525050565b600060208201905081810360008301526200049a8162000447565b9050919050565b6000602082019050620004b860008301846200046e565b92915050565b6000620004ca620004dd565b9050620004d88282620007fa565b919050565b6000604051905090565b600067ffffffffffffffff8211156200050557620005046200088e565b5b6200051082620008bd565b9050602081019050919050565b600082825260208201905092915050565b60006200053b8262000784565b9150620005488362000784565b9250827fffffffffffffffffffffffffffffffffffffffffffffffffffffffffffffffff0382111562000580576200057f62000830565b5b828201905092915050565b6000808291508390505b6001851115620005dd57808604811115620005b557620005b462000830565b5b6001851615620005c55780820291505b8081029050620005d585620008ce565b945062000595565b94509492505050565b6000620005f38262000784565b9150620006008362000784565b92506200062f7fffffffffffffffffffffffffffffffffffffffffffffffffffffffffffffffff848462000637565b905092915050565b6000826200064957600190506200071c565b816200065957600090506200071c565b81600181146200067257600281146200067d57620006b3565b60019150506200071c565b60ff84111562000692576200069162000830565b5b8360020a915084821115620006ac57620006ab62000830565b5b506200071c565b5060208310610133831016604e8410600b8410161715620006ed5782820a905083811115620006e757620006e662000830565b5b6200071c565b620006fc84848460016200058b565b9250905081840481111562000716576200071562000830565b5b81810290505b9392505050565b6000620007308262000784565b91506200073d8362000784565b9250817fffffffffffffffffffffffffffffffffffffffffffffffffffffffffffffffff048311821515161562000779576200077862000830565b5b828202905092915050565b6000819050919050565b60005b83811015620007ae57808201518184015260208101905062000791565b83811115620007be576000848401525b50505050565b60006002820490506001821680620007dd57607f821691505b60208210811415620007f457620007f36200085f565b5b50919050565b6200080582620008bd565b810181811067ffffffffffffffff821117156200082757620008266200088e565b5b80604052505050565b7f4e487b7100000000000000000000000000000000000000000000000000000000600052601160045260246000fd5b7f4e487b7100000000000000000000000000000000000000000000000000000000600052602260045260246000fd5b7f4e487b7100000000000000000000000000000000000000000000000000000000600052604160045260246000fd5b6000601f19601f8301169050919050565b60008160011c9050919050565b7f45524332303a206d696e7420746f20746865207a65726f206164647265737300600082015250565b6127e480620009146000396000f3fe608060405234801561001057600080fd5b506004361061014d5760003560e01c806342966c68116100c357806395d89b411161007c57806395d89b41146103c2578063a217fddf146103e0578063a457c2d7146103fe578063a9059cbb1461042e578063d547741f1461045e578063dd62ed3e1461047a5761014d565b806342966c68146102f25780634ff686af1461030e5780635ce289ba1461032a57806370a082311461034657806379cc67901461037657806391d14854146103925761014d565b8063248a9ca311610115578063248a9ca31461021e5780632f2ff15d1461024e578063313ce5671461026a57806332424aa31461028857806336568abe146102a657806339509351146102c25761014d565b806301ffc9a71461015257806306fdde0314610182578063095ea7b3146101a057806318160ddd146101d057806323b872dd146101ee575b600080fd5b61016c60048036038101906101679190611b31565b6104aa565b6040516101799190611e70565b60405180910390f35b61018a610524565b6040516101979190611ea6565b60405180910390f35b6101ba60048036038101906101b59190611a67565b6105b6565b6040516101c79190611e70565b60405180910390f35b6101d86105d4565b6040516101e59190612068565b60405180910390f35b61020860048036038101906102039190611a18565b6105de565b6040516102159190611e70565b60405180910390f35b61023860048036038101906102339190611acc565b6106d6565b6040516102459190611e8b565b60405180910390f35b61026860048036038101906102639190611af5565b6106f5565b005b61027261071e565b60405161027f9190612083565b60405180910390f35b610290610727565b60405161029d9190612083565b60405180910390f35b6102c060048036038101906102bb9190611af5565b61072c565b005b6102dc60048036038101906102d79190611a67565b6107af565b6040516102e99190611e70565b60405180910390f35b61030c60048036038101906103079190611b5a565b61085b565b005b61032860048036038101906103239190611b5a565b61086f565b005b610344600480360381019061033f9190611aa3565b610921565b005b610360600480360381019061035b91906119b3565b6109ce565b60405161036d9190612068565b60405180910390f35b610390600480360381019061038b9190611a67565b610a17565b005b6103ac60048036038101906103a79190611af5565b610a92565b6040516103b99190611e70565b60405180910390f35b6103ca610afc565b6040516103d79190611ea6565b60405180910390f35b6103e8610b8e565b6040516103f59190611e8b565b60405180910390f35b61041860048036038101906104139190611a67565b610b95565b6040516104259190611e70565b60405180910390f35b61044860048036038101906104439190611a67565b610c80565b6040516104559190611e70565b60405180910390f35b61047860048036038101906104739190611af5565b610c9e565b005b610494600480360381019061048f91906119dc565b610cc7565b6040516104a19190612068565b60405180910390f35b60007f7965db0b000000000000000000000000000000000000000000000000000000007bffffffffffffffffffffffffffffffffffffffffffffffffffffffff1916827bffffffffffffffffffffffffffffffffffffffffffffffffffffffff1916148061051d575061051c82610d4e565b5b9050919050565b60606004805461053390612291565b80601f016020809104026020016040519081016040528092919081815260200182805461055f90612291565b80156105ac5780601f10610581576101008083540402835291602001916105ac565b820191906000526020600020905b81548152906001019060200180831161058f57829003601f168201915b5050505050905090565b60006105ca6105c3610db8565b8484610dc0565b6001905092915050565b6000600354905090565b60006105eb848484610f8b565b6000600260008673ffffffffffffffffffffffffffffffffffffffff1673ffffffffffffffffffffffffffffffffffffffff1681526020019081526020016000206000610636610db8565b73ffffffffffffffffffffffffffffffffffffffff1673ffffffffffffffffffffffffffffffffffffffff168152602001908152602001600020549050828110156106b6576040517f08c379a00000000000000000000000000000000000000000000000000000000081526004016106ad90611f68565b60405180910390fd5b6106ca856106c2610db8565b858403610dc0565b60019150509392505050565b6000806000838152602001908152602001600020600101549050919050565b6106fe826106d6565b61070f8161070a610db8565b61120f565b61071983836112ac565b505050565b60006012905090565b601281565b610734610db8565b73ffffffffffffffffffffffffffffffffffffffff168173ffffffffffffffffffffffffffffffffffffffff16146107a1576040517f08c379a000000000000000000000000000000000000000000000000000000000815260040161079890612048565b60405180910390fd5b6107ab828261138c565b5050565b60006108516107bc610db8565b8484600260006107ca610db8565b73ffffffffffffffffffffffffffffffffffffffff1673ffffffffffffffffffffffffffffffffffffffff16815260200190815260200160002060008873ffffffffffffffffffffffffffffffffffffffff1673ffffffffffffffffffffffffffffffffffffffff1681526020019081526020016000205461084c91906120c5565b610dc0565b6001905092915050565b61086c610866610db8565b8261146d565b50565b600760149054906101000a900460ff1661091457600760009054906101000a900473ffffffffffffffffffffffffffffffffffffffff1673ffffffffffffffffffffffffffffffffffffffff163373ffffffffffffffffffffffffffffffffffffffff1614610913576040517f08c379a000000000000000000000000000000000000000000000000000000000815260040161090a90611fc8565b60405180910390fd5b5b61091e338261146d565b50565b600760009054906101000a900473ffffffffffffffffffffffffffffffffffffffff1673ffffffffffffffffffffffffffffffffffffffff163373ffffffffffffffffffffffffffffffffffffffff16146109b1576040517f08c379a00000000000000000000000000000000000000000000000000000000081526004016109a890611fc8565b60405180910390fd5b80600760146101000a81548160ff02191690831515021790555050565b6000600160008373ffffffffffffffffffffffffffffffffffffffff1673ffffffffffffffffffffffffffffffffffffffff168152602001908152602001600020549050919050565b6000610a2a83610a25610db8565b610cc7565b905081811015610a6f576040517f08c379a0000000000000000000000000000000000000000000000000000000008152600401610a6690611f88565b60405180910390fd5b610a8383610a7b610db8565b848403610dc0565b610a8d838361146d565b505050565b600080600084815260200190815260200160002060000160008373ffffffffffffffffffffffffffffffffffffffff1673ffffffffffffffffffffffffffffffffffffffff16815260200190815260200160002060009054906101000a900460ff16905092915050565b606060058054610b0b90612291565b80601f0160208091040260200160405190810160405280929190818152602001828054610b3790612291565b8015610b845780601f10610b5957610100808354040283529160200191610b84565b820191906000526020600020905b815481529060010190602001808311610b6757829003601f168201915b5050505050905090565b6000801b81565b60008060026000610ba4610db8565b73ffffffffffffffffffffffffffffffffffffffff1673ffffffffffffffffffffffffffffffffffffffff16815260200190815260200160002060008573ffffffffffffffffffffffffffffffffffffffff1673ffffffffffffffffffffffffffffffffffffffff16815260200190815260200160002054905082811015610c61576040517f08c379a0000000000000000000000000000000000000000000000000000000008152600401610c5890612028565b60405180910390fd5b610c75610c6c610db8565b85858403610dc0565b600191505092915050565b6000610c94610c8d610db8565b8484610f8b565b6001905092915050565b610ca7826106d6565b610cb881610cb3610db8565b61120f565b610cc2838361138c565b505050565b6000600260008473ffffffffffffffffffffffffffffffffffffffff1673ffffffffffffffffffffffffffffffffffffffff16815260200190815260200160002060008373ffffffffffffffffffffffffffffffffffffffff1673ffffffffffffffffffffffffffffffffffffffff16815260200190815260200160002054905092915050565b60007f01ffc9a7000000000000000000000000000000000000000000000000000000007bffffffffffffffffffffffffffffffffffffffffffffffffffffffff1916827bffffffffffffffffffffffffffffffffffffffffffffffffffffffff1916149050919050565b600033905090565b600073ffffffffffffffffffffffffffffffffffffffff168373ffffffffffffffffffffffffffffffffffffffff161415610e30576040517f08c379a0000000000000000000000000000000000000000000000000000000008152600401610e2790612008565b60405180910390fd5b600073ffffffffffffffffffffffffffffffffffffffff168273ffffffffffffffffffffffffffffffffffffffff161415610ea0576040517f08c379a0000000000000000000000000000000000000000000000000000000008152600401610e9790611f28565b60405180910390fd5b80600260008573ffffffffffffffffffffffffffffffffffffffff1673ffffffffffffffffffffffffffffffffffffffff16815260200190815260200160002060008473ffffffffffffffffffffffffffffffffffffffff1673ffffffffffffffffffffffffffffffffffffffff168152602001908152602001600020819055508173ffffffffffffffffffffffffffffffffffffffff168373ffffffffffffffffffffffffffffffffffffffff167f8c5be1e5ebec7d5bd14f71427d1e84f3dd0314c0f7b2291e5b200ac8c7c3b92583604051610f7e9190612068565b60405180910390a3505050565b600073ffffffffffffffffffffffffffffffffffffffff168373ffffffffffffffffffffffffffffffffffffffff161415610ffb576040517f08c379a0000000000000000000000000000000000000000000000000000000008152600401610ff290611fe8565b60405180910390fd5b600073ffffffffffffffffffffffffffffffffffffffff168273ffffffffffffffffffffffffffffffffffffffff16141561106b576040517f08c379a000000000000000000000000000000000000000000000000000000000815260040161106290611ee8565b60405180910390fd5b611076838383611646565b6000600160008573ffffffffffffffffffffffffffffffffffffffff1673ffffffffffffffffffffffffffffffffffffffff168152602001908152602001600020549050818110156110fd576040517f08c379a00000000000000000000000000000000000000000000000000000000081526004016110f490611f48565b60405180910390fd5b818103600160008673ffffffffffffffffffffffffffffffffffffffff1673ffffffffffffffffffffffffffffffffffffffff1681526020019081526020016000208190555081600160008573ffffffffffffffffffffffffffffffffffffffff1673ffffffffffffffffffffffffffffffffffffffff168152602001908152602001600020600082825461119291906120c5565b925050819055508273ffffffffffffffffffffffffffffffffffffffff168473ffffffffffffffffffffffffffffffffffffffff167fddf252ad1be2c89b69c2b068fc378daa952ba7f163c4a11628f55a4df523b3ef846040516111f69190612068565b60405180910390a361120984848461164b565b50505050565b6112198282610a92565b6112a85761123e8173ffffffffffffffffffffffffffffffffffffffff166014611650565b61124c8360001c6020611650565b60405160200161125d929190611e36565b6040516020818303038152906040526040517f08c379a000000000000000000000000000000000000000000000000000000000815260040161129f9190611ea6565b60405180910390fd5b5050565b6112b68282610a92565b61138857600160008084815260200190815260200160002060000160008373ffffffffffffffffffffffffffffffffffffffff1673ffffffffffffffffffffffffffffffffffffffff16815260200190815260200160002060006101000a81548160ff02191690831515021790555061132d610db8565b73ffffffffffffffffffffffffffffffffffffffff168173ffffffffffffffffffffffffffffffffffffffff16837f2f8788117e7eff1d82e926ec794901d17c78024a50270940304540a733656f0d60405160405180910390a45b5050565b6113968282610a92565b1561146957600080600084815260200190815260200160002060000160008373ffffffffffffffffffffffffffffffffffffffff1673ffffffffffffffffffffffffffffffffffffffff16815260200190815260200160002060006101000a81548160ff02191690831515021790555061140e610db8565b73ffffffffffffffffffffffffffffffffffffffff168173ffffffffffffffffffffffffffffffffffffffff16837ff6391f5c32d9c69d2a47ea670b442974b53935d1edc7fd64eb21e047a839171b60405160405180910390a45b5050565b600073ffffffffffffffffffffffffffffffffffffffff168273ffffffffffffffffffffffffffffffffffffffff1614156114dd576040517f08c379a00000000000000000000000000000000000000000000000000000000081526004016114d490611fa8565b60405180910390fd5b6114e982600083611646565b6000600160008473ffffffffffffffffffffffffffffffffffffffff1673ffffffffffffffffffffffffffffffffffffffff16815260200190815260200160002054905081811015611570576040517f08c379a000000000000000000000000000000000000000000000000000000000815260040161156790611f08565b60405180910390fd5b818103600160008573ffffffffffffffffffffffffffffffffffffffff1673ffffffffffffffffffffffffffffffffffffffff1681526020019081526020016000208190555081600360008282546115c89190612175565b92505081905550600073ffffffffffffffffffffffffffffffffffffffff168373ffffffffffffffffffffffffffffffffffffffff167fddf252ad1be2c89b69c2b068fc378daa952ba7f163c4a11628f55a4df523b3ef8460405161162d9190612068565b60405180910390a36116418360008461164b565b505050565b505050565b505050565b606060006002836002611663919061211b565b61166d91906120c5565b67ffffffffffffffff8111156116ac577f4e487b7100000000000000000000000000000000000000000000000000000000600052604160045260246000fd5b6040519080825280601f01601f1916602001820160405280156116de5781602001600182028036833780820191505090505b5090507f30000000000000000000000000000000000000000000000000000000000000008160008151811061173c577f4e487b7100000000000000000000000000000000000000000000000000000000600052603260045260246000fd5b60200101907effffffffffffffffffffffffffffffffffffffffffffffffffffffffffffff1916908160001a9053507f7800000000000000000000000000000000000000000000000000000000000000816001815181106117c6577f4e487b7100000000000000000000000000000000000000000000000000000000600052603260045260246000fd5b60200101907effffffffffffffffffffffffffffffffffffffffffffffffffffffffffffff1916908160001a90535060006001846002611806919061211b565b61181091906120c5565b90505b60018111156118fc577f3031323334353637383961626364656600000000000000000000000000000000600f861660108110611878577f4e487b7100000000000000000000000000000000000000000000000000000000600052603260045260246000fd5b1a60f81b8282815181106118b5577f4e487b7100000000000000000000000000000000000000000000000000000000600052603260045260246000fd5b60200101907effffffffffffffffffffffffffffffffffffffffffffffffffffffffffffff1916908160001a905350600485901c9450806118f590612267565b9050611813565b5060008414611940576040517f08c379a000000000000000000000000000000000000000000000000000000000815260040161193790611ec8565b60405180910390fd5b8091505092915050565b6000813590506119598161273b565b92915050565b60008135905061196e81612752565b92915050565b60008135905061198381612769565b92915050565b60008135905061199881612780565b92915050565b6000813590506119ad81612797565b92915050565b6000602082840312156119c557600080fd5b60006119d38482850161194a565b91505092915050565b600080604083850312156119ef57600080fd5b60006119fd8582860161194a565b9250506020611a0e8582860161194a565b9150509250929050565b600080600060608486031215611a2d57600080fd5b6000611a3b8682870161194a565b9350506020611a4c8682870161194a565b9250506040611a5d8682870161199e565b9150509250925092565b60008060408385031215611a7a57600080fd5b6000611a888582860161194a565b9250506020611a998582860161199e565b9150509250929050565b600060208284031215611ab557600080fd5b6000611ac38482850161195f565b91505092915050565b600060208284031215611ade57600080fd5b6000611aec84828501611974565b91505092915050565b60008060408385031215611b0857600080fd5b6000611b1685828601611974565b9250506020611b278582860161194a565b9150509250929050565b600060208284031215611b4357600080fd5b6000611b5184828501611989565b91505092915050565b600060208284031215611b6c57600080fd5b6000611b7a8482850161199e565b91505092915050565b611b8c816121bb565b82525050565b611b9b816121c7565b82525050565b6000611bac8261209e565b611bb681856120a9565b9350611bc6818560208601612234565b611bcf81612321565b840191505092915050565b6000611be58261209e565b611bef81856120ba565b9350611bff818560208601612234565b80840191505092915050565b6000611c186020836120a9565b9150611c2382612332565b602082019050919050565b6000611c3b6023836120a9565b9150611c468261235b565b604082019050919050565b6000611c5e6022836120a9565b9150611c69826123aa565b604082019050919050565b6000611c816022836120a9565b9150611c8c826123f9565b604082019050919050565b6000611ca46026836120a9565b9150611caf82612448565b604082019050919050565b6000611cc76028836120a9565b9150611cd282612497565b604082019050919050565b6000611cea6024836120a9565b9150611cf5826124e6565b604082019050919050565b6000611d0d6021836120a9565b9150611d1882612535565b604082019050919050565b6000611d306013836120a9565b9150611d3b82612584565b602082019050919050565b6000611d536025836120a9565b9150611d5e826125ad565b604082019050919050565b6000611d766024836120a9565b9150611d81826125fc565b604082019050919050565b6000611d996017836120ba565b9150611da48261264b565b601782019050919050565b6000611dbc6025836120a9565b9150611dc782612674565b604082019050919050565b6000611ddf6011836120ba565b9150611dea826126c3565b601182019050919050565b6000611e02602f836120a9565b9150611e0d826126ec565b604082019050919050565b611e218161221d565b82525050565b611e3081612227565b82525050565b6000611e4182611d8c565b9150611e4d8285611bda565b9150611e5882611dd2565b9150611e648284611bda565b91508190509392505050565b6000602082019050611e856000830184611b83565b92915050565b6000602082019050611ea06000830184611b92565b92915050565b60006020820190508181036000830152611ec08184611ba1565b905092915050565b60006020820190508181036000830152611ee181611c0b565b9050919050565b60006020820190508181036000830152611f0181611c2e565b9050919050565b60006020820190508181036000830152611f2181611c51565b9050919050565b60006020820190508181036000830152611f4181611c74565b9050919050565b60006020820190508181036000830152611f6181611c97565b9050919050565b60006020820190508181036000830152611f8181611cba565b9050919050565b60006020820190508181036000830152611fa181611cdd565b9050919050565b60006020820190508181036000830152611fc181611d00565b9050919050565b60006020820190508181036000830152611fe181611d23565b9050919050565b6000602082019050818103600083015261200181611d46565b9050919050565b6000602082019050818103600083015261202181611d69565b9050919050565b6000602082019050818103600083015261204181611daf565b9050919050565b6000602082019050818103600083015261206181611df5565b9050919050565b600060208201905061207d6000830184611e18565b92915050565b60006020820190506120986000830184611e27565b92915050565b600081519050919050565b600082825260208201905092915050565b600081905092915050565b60006120d08261221d565b91506120db8361221d565b9250827fffffffffffffffffffffffffffffffffffffffffffffffffffffffffffffffff038211156121105761210f6122c3565b5b828201905092915050565b60006121268261221d565b91506121318361221d565b9250817fffffffffffffffffffffffffffffffffffffffffffffffffffffffffffffffff048311821515161561216a576121696122c3565b5b828202905092915050565b60006121808261221d565b915061218b8361221d565b92508282101561219e5761219d6122c3565b5b828203905092915050565b60006121b4826121fd565b9050919050565b60008115159050919050565b6000819050919050565b60007fffffffff0000000000000000000000000000000000000000000000000000000082169050919050565b600073ffffffffffffffffffffffffffffffffffffffff82169050919050565b6000819050919050565b600060ff82169050919050565b60005b83811015612252578082015181840152602081019050612237565b83811115612261576000848401525b50505050565b60006122728261221d565b91506000821415612286576122856122c3565b5b600182039050919050565b600060028204905060018216806122a957607f821691505b602082108114156122bd576122bc6122f2565b5b50919050565b7f4e487b7100000000000000000000000000000000000000000000000000000000600052601160045260246000fd5b7f4e487b7100000000000000000000000000000000000000000000000000000000600052602260045260246000fd5b6000601f19601f8301169050919050565b7f537472696e67733a20686578206c656e67746820696e73756666696369656e74600082015250565b7f45524332303a207472616e7366657220746f20746865207a65726f206164647260008201527f6573730000000000000000000000000000000000000000000000000000000000602082015250565b7f45524332303a206275726e20616d6f756e7420657863656564732062616c616e60008201527f6365000000000000000000000000000000000000000000000000000000000000602082015250565b7f45524332303a20617070726f766520746f20746865207a65726f20616464726560008201527f7373000000000000000000000000000000000000000000000000000000000000602082015250565b7f45524332303a207472616e7366657220616d6f756e742065786365656473206260008201527f616c616e63650000000000000000000000000000000000000000000000000000602082015250565b7f45524332303a207472616e7366657220616d6f756e742065786365656473206160008201527f6c6c6f77616e6365000000000000000000000000000000000000000000000000602082015250565b7f45524332303a206275726e20616d6f756e74206578636565647320616c6c6f7760008201527f616e636500000000000000000000000000000000000000000000000000000000602082015250565b7f45524332303a206275726e2066726f6d20746865207a65726f2061646472657360008201527f7300000000000000000000000000000000000000000000000000000000000000602082015250565b7f556e617574686f72697a65642061636365737300000000000000000000000000600082015250565b7f45524332303a207472616e736665722066726f6d20746865207a65726f20616460008201527f6472657373000000000000000000000000000000000000000000000000000000602082015250565b7f45524332303a20617070726f76652066726f6d20746865207a65726f2061646460008201527f7265737300000000000000000000000000000000000000000000000000000000602082015250565b7f416363657373436f6e74726f6c3a206163636f756e7420000000000000000000600082015250565b7f45524332303a2064656372656173656420616c6c6f77616e63652062656c6f7760008201527f207a65726f000000000000000000000000000000000000000000000000000000602082015250565b7f206973206d697373696e6720726f6c6520000000000000000000000000000000600082015250565b7f416363657373436f6e74726f6c3a2063616e206f6e6c792072656e6f756e636560008201527f20726f6c657320666f722073656c660000000000000000000000000000000000602082015250565b612744816121a9565b811461274f57600080fd5b50565b61275b816121bb565b811461276657600080fd5b50565b612772816121c7565b811461277d57600080fd5b50565b612789816121d1565b811461279457600080fd5b50565b6127a08161221d565b81146127ab57600080fd5b5056fea2646970667358221220f8e34e2cd405ee04d18ae93722158bd7934e8f8dc28cf0abf1202c57f5c6d51264736f6c63430008040033",
    "linkReferences": {},
    "deployedLinkReferences": {}
}